{
  "contractName": "LivePod_Token",
  "abi": [
    {
      "constant": true,
      "inputs": [],
      "name": "name",
      "outputs": [
        {
          "name": "",
          "type": "string"
        }
      ],
      "payable": false,
      "stateMutability": "view",
      "type": "function",
      "signature": "0x06fdde03"
    },
    {
      "constant": true,
      "inputs": [],
      "name": "totalSupply",
      "outputs": [
        {
          "name": "",
          "type": "uint256"
        }
      ],
      "payable": false,
      "stateMutability": "view",
      "type": "function",
      "signature": "0x18160ddd"
    },
    {
      "constant": true,
      "inputs": [],
      "name": "standard",
      "outputs": [
        {
          "name": "",
          "type": "string"
        }
      ],
      "payable": false,
      "stateMutability": "view",
      "type": "function",
      "signature": "0x5a3b7e42"
    },
    {
      "constant": true,
      "inputs": [
        {
          "name": "",
          "type": "address"
        }
      ],
      "name": "balanceOf",
      "outputs": [
        {
          "name": "",
          "type": "uint256"
        }
      ],
      "payable": false,
      "stateMutability": "view",
      "type": "function",
      "signature": "0x70a08231"
    },
    {
      "constant": true,
      "inputs": [],
      "name": "decimal",
      "outputs": [
        {
          "name": "",
          "type": "uint8"
        }
      ],
      "payable": false,
      "stateMutability": "view",
      "type": "function",
      "signature": "0x76809ce3"
    },
    {
      "constant": true,
      "inputs": [],
      "name": "symbol",
      "outputs": [
        {
          "name": "",
          "type": "string"
        }
      ],
      "payable": false,
      "stateMutability": "view",
      "type": "function",
      "signature": "0x95d89b41"
    },
    {
      "inputs": [
        {
          "name": "_initialSupply",
          "type": "uint256"
        }
      ],
      "payable": false,
      "stateMutability": "nonpayable",
      "type": "constructor",
      "signature": "constructor"
    },
    {
      "anonymous": false,
      "inputs": [
        {
          "indexed": true,
          "name": "_from",
          "type": "address"
        },
        {
          "indexed": true,
          "name": "_to",
          "type": "address"
        },
        {
          "indexed": false,
          "name": "_value",
          "type": "uint256"
        }
      ],
      "name": "Transfer",
      "type": "event",
      "signature": "0xddf252ad1be2c89b69c2b068fc378daa952ba7f163c4a11628f55a4df523b3ef"
    },
    {
      "anonymous": false,
      "inputs": [
        {
          "indexed": true,
          "name": "_form",
          "type": "address"
        },
        {
          "indexed": false,
          "name": "_value",
          "type": "uint256"
        }
      ],
      "name": "Burn",
      "type": "event",
      "signature": "0xcc16f5dbb4873280815c1ee09dbd06736cffcc184412cf7a71a0fdb75d397ca5"
    },
    {
      "constant": false,
      "inputs": [
        {
          "name": "_to",
          "type": "address"
        },
        {
          "name": "_value",
          "type": "uint256"
        }
      ],
      "name": "transfer",
      "outputs": [
        {
          "name": "success",
          "type": "bool"
        }
      ],
      "payable": false,
      "stateMutability": "nonpayable",
      "type": "function",
      "signature": "0xa9059cbb"
    },
    {
      "constant": false,
      "inputs": [
        {
          "name": "_value",
          "type": "uint256"
        }
      ],
      "name": "burn",
      "outputs": [
        {
          "name": "success",
          "type": "bool"
        }
      ],
      "payable": false,
      "stateMutability": "nonpayable",
      "type": "function",
      "signature": "0x42966c68"
    }
  ],
  "bytecode": "0x60806040526040805190810160405280600d81526020017f4c495645504f4420544f4b454e000000000000000000000000000000000000008152506000908051906020019061004f929190610192565b506040805190810160405280600481526020017f4c565044000000000000000000000000000000000000000000000000000000008152506001908051906020019061009b929190610192565b506040805190810160405280601281526020017f4c494e45504f4420546f6b656e2076312e300000000000000000000000000000815250600290805190602001906100e7929190610192565b506012600360006101000a81548160ff021916908360ff16021790555034801561011057600080fd5b50604051602080610aa48339810180604052602081101561013057600080fd5b810190808051906020019092919050505080600560003373ffffffffffffffffffffffffffffffffffffffff1673ffffffffffffffffffffffffffffffffffffffff168152602001908152602001600020819055508060048190555050610237565b828054600181600116156101000203166002900490600052602060002090601f016020900481019282601f106101d357805160ff1916838001178555610201565b82800160010185558215610201579182015b828111156102005782518255916020019190600101906101e5565b5b50905061020e9190610212565b5090565b61023491905b80821115610230576000816000905550600101610218565b5090565b90565b61085e806102466000396000f3fe60806040526004361061008e576000357c0100000000000000000000000000000000000000000000000000000000900463ffffffff16806306fdde031461009357806318160ddd1461012357806342966c681461014e5780635a3b7e42146101a157806370a082311461023157806376809ce31461029657806395d89b41146102c7578063a9059cbb14610357575b600080fd5b34801561009f57600080fd5b506100a86103ca565b6040518080602001828103825283818151815260200191508051906020019080838360005b838110156100e85780820151818401526020810190506100cd565b50505050905090810190601f1680156101155780820380516001836020036101000a031916815260200191505b509250505060405180910390f35b34801561012f57600080fd5b50610138610468565b6040518082815260200191505060405180910390f35b34801561015a57600080fd5b506101876004803603602081101561017157600080fd5b810190808035906020019092919050505061046e565b604051808215151515815260200191505060405180910390f35b3480156101ad57600080fd5b506101b6610572565b6040518080602001828103825283818151815260200191508051906020019080838360005b838110156101f65780820151818401526020810190506101db565b50505050905090810190601f1680156102235780820380516001836020036101000a031916815260200191505b509250505060405180910390f35b34801561023d57600080fd5b506102806004803603602081101561025457600080fd5b81019080803573ffffffffffffffffffffffffffffffffffffffff169060200190929190505050610610565b6040518082815260200191505060405180910390f35b3480156102a257600080fd5b506102ab610628565b604051808260ff1660ff16815260200191505060405180910390f35b3480156102d357600080fd5b506102dc61063b565b6040518080602001828103825283818151815260200191508051906020019080838360005b8381101561031c578082015181840152602081019050610301565b50505050905090810190601f1680156103495780820380516001836020036101000a031916815260200191505b509250505060405180910390f35b34801561036357600080fd5b506103b06004803603604081101561037a57600080fd5b81019080803573ffffffffffffffffffffffffffffffffffffffff169060200190929190803590602001909291905050506106d9565b604051808215151515815260200191505060405180910390f35b60008054600181600116156101000203166002900480601f0160208091040260200160405190810160405280929190818152602001828054600181600116156101000203166002900480156104605780601f1061043557610100808354040283529160200191610460565b820191906000526020600020905b81548152906001019060200180831161044357829003601f168201915b505050505081565b60045481565b600081600560003373ffffffffffffffffffffffffffffffffffffffff1673ffffffffffffffffffffffffffffffffffffffff16815260200190815260200160002054101515156104be57600080fd5b81600560003373ffffffffffffffffffffffffffffffffffffffff1673ffffffffffffffffffffffffffffffffffffffff16815260200190815260200160002060008282540392505081905550816004600082825403925050819055503373ffffffffffffffffffffffffffffffffffffffff167fcc16f5dbb4873280815c1ee09dbd06736cffcc184412cf7a71a0fdb75d397ca5836040518082815260200191505060405180910390a260019050919050565b60028054600181600116156101000203166002900480601f0160208091040260200160405190810160405280929190818152602001828054600181600116156101000203166002900480156106085780601f106105dd57610100808354040283529160200191610608565b820191906000526020600020905b8154815290600101906020018083116105eb57829003601f168201915b505050505081565b60056020528060005260406000206000915090505481565b600360009054906101000a900460ff1681565b60018054600181600116156101000203166002900480601f0160208091040260200160405190810160405280929190818152602001828054600181600116156101000203166002900480156106d15780601f106106a6576101008083540402835291602001916106d1565b820191906000526020600020905b8154815290600101906020018083116106b457829003601f168201915b505050505081565b600081600560003373ffffffffffffffffffffffffffffffffffffffff1673ffffffffffffffffffffffffffffffffffffffff168152602001908152602001600020541015151561072957600080fd5b81600560003373ffffffffffffffffffffffffffffffffffffffff1673ffffffffffffffffffffffffffffffffffffffff1681526020019081526020016000206000828254039250508190555081600560008573ffffffffffffffffffffffffffffffffffffffff1673ffffffffffffffffffffffffffffffffffffffff168152602001908152602001600020600082825401925050819055508273ffffffffffffffffffffffffffffffffffffffff163373ffffffffffffffffffffffffffffffffffffffff167fddf252ad1be2c89b69c2b068fc378daa952ba7f163c4a11628f55a4df523b3ef846040518082815260200191505060405180910390a3600190509291505056fea165627a7a723058207cc5f0eb522e3d9df7a5d20a59f9d88d2b2597f84ef6d10be5fce90067175ac20029",
  "source": "pragma solidity >=0.4.21 <0.6.0;\r\n\r\ncontract LivePod_Token{\r\n        string public name =\"LIVEPOD TOKEN\";\r\n        string public symbol =\"LVPD\";\r\n        string public standard = \"LINEPOD Token v1.0\";\r\n        uint8 public decimal = 18;\r\n        uint256 public totalSupply;\r\n\r\n        event Transfer(address indexed _from, address indexed _to, uint256 _value);\r\n        event Burn(address indexed _form, uint256 _value);\r\n\r\n        mapping(address => uint256) public balanceOf;\r\n\r\n/*    constructor() public {\r\n            balanceOf[msg.sender] = 300000000;\r\n        }\r\n*/   constructor(uint256 _initialSupply) public{\r\n      balanceOf[msg.sender]=_initialSupply;\r\n      totalSupply=_initialSupply;\r\n    }\r\n\r\n   function transfer(address _to,uint256 _value) public returns(bool success){\r\n     require(balanceOf[msg.sender]>=_value);\r\n     balanceOf[msg.sender] -=_value;\r\n     balanceOf[_to]+=_value;\r\n\r\n     emit Transfer(msg.sender,_to,_value);\r\n\r\n     return true;\r\n   }\r\n   function burn(uint256 _value) public returns (bool success) {\r\n        require(balanceOf[msg.sender] >= _value);   // Check if the sender has enough\r\n        balanceOf[msg.sender] -= _value;            // Subtract from the sender\r\n        totalSupply -= _value;                      // Updates totalSupply\r\n        emit Burn(msg.sender, _value);\r\n        return true;\r\n    }\r\n/*\r\n    //Create New Token\r\n function mintToken(address target, uint256 mintedAmount) onlyOwner public {\r\n    balanceOf[target] += mintedAmount;\r\n    totalSupply += mintedAmount;\r\n    emit Transfer(0, owner, mintedAmount);\r\n    emit Transfer(owner, target, mintedAmount);\r\n}*/\r\n}\r\n",
  "sourcePath": "C:/Users/Mady/Chainskills/gyakorlat/feladat2/contracts/livepod_token.sol",
  "compiler": {
    "name": "solc",
    "version": "0.5.0+commit.1d4f565a.Emscripten.clang"
  },
  "schemaVersion": "3.0.1",
  "updatedAt": "2019-01-31T21:27:33.640Z",
  "devdoc": {
    "methods": {}
  },
  "userdoc": {
    "methods": {}
  }
}